:020000040800F2
:10000000A00700208D020008090E0008010E00085C
:10001000050E0008D10400082D0E000800000000A5
:10002000000000000000000000000000110E0008A9
:10003000D5040008000000000D0E0008150E000891
:10004000A7020008A7020008A7020008A7020008EC
:10005000A7020008A7020008D9040008A7020008A8
:10006000A7020008A7020008A7020008A7020008CC
:10007000A7020008A7020008A7020008A7020008BC
:10008000A7020008A7020008A7020008A7020008AC
:10009000A7020008A7020008A7020008A70200089C
:1000A000A7020008A7020008A7020008A70200088C
:1000B000A7020008A7020008A7020008A70200087C
:1000C000A7020008A7020008A7020008A70200086C
:1000D000A7020008A7020008A7020008A70200085C
:1000E000A7020008A7020008A7020008A70200084C
:1000F000A7020008A7020008A7020008A70200083C
:10010000A7020008A7020008A7020008A70200082B
:10011000A7020008A7020008A7020008A70200081B
:10012000A7020008A7020008A7020008A70200080B
:10013000A7020008A7020008A7020008A7020008FB
:10014000A7020008A7020008A7020008A7020008EB
:10015000A7020008A7020008A7020008A7020008DB
:10016000A7020008A7020008A7020008A7020008CB
:10017000A7020008A7020008A7020008000000006C
:10018000A7020008A702000800F002F800F054F8E7
:1001900014A696E8000CB244B344DA4501D100F04D
:1001A0004BF8BAE80F000FA696E83000A5EB04055F
:1001B00004EB0607AAEB0704A7F101074FEA1515A0
:1001C0004FEA3414A4F10104AC4201D300F034F836
:1001D00013F0010F18BFFB1A43F0010300F001F800
:1001E000DBE71847F010000010110000103A24BFA0
:1001F00078C878C1FAD8520724BF30C830C144BF8C
:1002000004680C6070470000704700000023002461
:1002100000250026103A28BF78C1FBD8520728BF16
:1002200030C148BF0B6070471FB501F03DF800F0CA
:10023000DAF81FBD10B510BD00F010F91146FFF738
:10024000F3FF00F06DFF00F02EF903B4FFF7F2FFAB
:1002500003BC00F035F900000B49D1F800C04A6832
:100260005CF8043B1068184442F8040B8C4528BF26
:10027000A1F1DC0C8A4228BFA1F1DC02C1F800C068
:100280004A6020F000407047EC0000200948804799
:1002900009480047FEE7FEE7FEE7FEE7FEE7FEE768
:1002A000FEE7FEE7FEE7FEE704480549054A064B80
:1002B00070470000190E000889010008A001002005
:1002C000A0070020A0030020A003002053EA020C96
:1002D00000F069802DE9F04B4FF00006002B1FBFA6
:1002E000B3FA83F503FA05F424FA05F65E4012BF6B
:1002F0001643B2FA82F502FA05F4C5F120051EBFD5
:1003000022FA05FC44EA0C04203556EA044C4FEA74
:10031000144418BF641C4FF000084FF000099042CD
:1003200071EB030C39D3002919BFB1FA81F701FA37
:1003300007F6B0FA80F700FA07F6C7F120071EBFEC
:1003400020FA07FC46EA0C062037B6FBF4FCA7EBC4
:100350000507103F07F01F0BCBF120062CFA06F61D
:100360000CFA0BFB44BFB3460026202FA4BF5E4609
:100370004FF0000B5BEA060C08BF4FF0010B19EBC6
:100380000B0948EB0608ABFB027C06FB02CC0BFB1F
:1003900003CCC01B71EB0C01C1E70B460246414682
:1003A0004846BDE8F08B13B5084318BF4FF0FF3047
:1003B0000146AFF30080BDE81C4070470B4910B503
:1003C000A1F17C020A4CC2E93712372106E000EBAA
:1003D000104342F82130074B00FB03400B1EA1F1F4
:1003E0000101F4DC10BD0120E8E700008C000020D2
:1003F000E119D666CD0D010002F0FF0343EA0322A6
:1004000042EA024200F002B84FF0000200B5134683
:1004100094469646203922BFA0E80C50A0E80C5024
:10042000B1F12001BFF4F7AF090728BFA0E80C50D5
:1004300048BF0CC05DF804EB890028BF40F8042BCE
:1004400008BF704748BF20F8022B11F0804F18BF3B
:1004500000F8012B7047704770477047754600F0F1
:100460002BF8AE4605006946534620F00700854646
:1004700018B020B5FFF718FFBDE820404FF0000688
:100480004FF000074FF000084FF0000BAC46ACE80F
:10049000C009ACE8C009ACE8C009ACE8C00921F06B
:1004A00007018D46704710B50446AFF30080204623
:1004B000BDE81040FFF7C9BE00487047F4000020B7
:1004C00001491820ABBEFEE726000200704700007D
:1004D000FEE7000070470000012000F01BB800009C
:1004E000B0B5044600F0F8F8054640F20000C2F24C
:1004F00000000078611C18BF044400BF00F0ECF855
:10050000401BA042FAD3B0BD012818BF704700F0CD
:10051000EFBD000043F61441C4F201010A68024233
:1005200014BF08607047FFF7EFBF00002DE9F04FE0
:1005300083B000F1200200F13E4741F600450092F1
:1005400007F1FF77C4F2020508224FEAB726A84256
:1005500008BF072200254FF000084FF00009072EC2
:1005600038BF4FEAB72201920AE000BF09F1010942
:1005700008F10208B9F1100F05F1040500F0A2809E
:100580000F68012202FA09FE17EA0E0AEED0D1F82E
:1005900004C003220CF003077E1E02FA08F4012EA9
:1005A0006FEA040B12D88468CE6804EA0B0406FADA
:1005B00008F634438460446824EA0E06CCF3001441
:1005C00004FA09F42643466004E000BF032F01D17A
:1005D00003271EE0C6688C6806EA0B0604FA08F4D6
:1005E0002643022FC66014D16FF00302009E02EA78
:1005F000590756F807C005F01C040F220B69A240EA
:100600002CEA0202A3401A43F251D1F804C00CF0C4
:100610000307026807FA08F302EA0B021A431CF404
:10062000403F0260A2D0002243F644030292C4F28B
:1006300002031A6843F6004442F480421A601A68C2
:10064000C4F2010402F480420292029A29F00302E9
:100650004FF6084C2244CFF6FF7C52F80C3005F0E0
:100660000C070F26BE40B343019E06FA07F73B4333
:1006700042F80C30A2684B6842EA0A0743F60C4C79
:10068000DE0258BF22EA0A07A760C4F2010CDCF8B8
:1006900000209E0242EA0A0758BF22EA0A07CCF865
:1006A000007062689E0342EA0A0758BF22EA0A07FE
:1006B00067602268DB0342EA0A0758BF22EA0A079A
:1006C000276053E703B0BDE8F08F0000002A08BFA1
:1006D000090481617047000040F29C10C2F20000E2
:1006E0000068704740F2000040F29C11C2F2000026
:1006F000C2F2000100780A681044086070470000E8
:1007000080B543F60040C4F20200016841F4007174
:100710000160016841F480610160016841F4807109
:100720000160032000F086F80F2000F005F800F0CB
:1007300027F8002080BD000070B540F20006C2F22C
:10074000000640F208013278C2F200014FF47A73D9
:100750000968B3FBF2F20446B1FBF2F1084600F07F
:1007600039FB0F2C4FF0010508D838B94FF0FF3096
:1007700021460022002500F031F87460284670BD43
:1007800082B0002043F640010190C4F202014A68A1
:1007900042F480424A604A6802F480420192019A1F
:1007A0000090086840F080500860086800F08050B1
:1007B0000090009802B07047002848BF704700F0D2
:1007C0001F01012202FA01F11C2202EAD0004EF2BE
:1007D0000012CEF2000281507047000010B54EF6B4
:1007E0000C5CCEF2000CDCF80030C3F3022E8EF06D
:1007F0000704042C28BF0424BEF103034FF0FF3E7E
:100800000EFA04F438BF0023A14399400EFA03F313
:100810009A43114300F00F0200F160430901043ACA
:1008200003F564436244002848BF02F10C031970C9
:1008300010BD00004EF60C51CEF200010A684FF6D2
:10084000FF031A4060F30A2242F0806040F0FD701E
:1008500008607047002804BF012070472DE9F0416F
:1008600043F60808C4F202080446D8F8F8030D4617
:1008700000F00700814207D988F8F853D8F8F80348
:1008800000F00700A84277D12068810717D54107FB
:1008900005D5D8F8001041F4E051C8F80010010760
:1008A00005D5D8F8001041F46041C8F80010D8F818
:1008B0000010A26821F0F0011143C8F80010C00731
:1008C00040D1D8F8F80300F00700854207D288F835
:1008D000F853D8F8F80300F00700A8424CD120687C
:1008E000410707D5D8F80010E26821F4E051114320
:1008F000C8F80010000708D5D8F80000216920F4D6
:10090000604040EAC100C8F8000000F055F8D8F88F
:10091000001041F2C222C1F30311C0F60002515C83
:1009200040F2080220FA01F140F20400C2F2000095
:100930000068C2F200021160FFF7FEFE0020BDE871
:10094000F08100BF6068811E022907D258F8081C98
:1009500089015CBF0120BDE8F08111E0012807D1C9
:1009600058F8081C89035CBF0120BDE8F08107E04E
:1009700058F8081C890703D40120BDE8F08100BFA6
:10098000D8F8001021F003010843C8F80000FFF771
:10099000A3FE064641F28837D8F80000616800F0EF
:1009A0000C00B0EB810F8CD0FFF796FE801BB84295
:1009B000F2D90320BDE8F08110B543F60404C4F277
:1009C00002046168C1F3810142F20040C0F2F40008
:1009D000DFE801F002040A0210BD00BF47F6400044
:1009E000C0F27D1010BD00BF206821682368490255
:1009F00047F64001C0F27D1100F03F02C3F38810BA
:100A00005CBF42F20041C0F2F401A1FB00010023EF
:100A1000FFF75CFC21680222C1F3014102EB4101B6
:100A2000B0FBF1F010BD0000002804BF01207047AA
:100A30002DE9F04182B00446007843F60006C00775
:100A4000C4F202060CD0B06800F00C00042840F09C
:100A500081803068800303D56068002800F06881D9
:100A6000207880071BD5B06810F00C0F09D0B06853
:100A700000F00C00082840F087807068400200F108
:100A800083803068800703D5E068012840F05081FA
:100A90003068216920F0F80040EAC1003060207819
:100AA000000713D4207840072AD4A569002D00F050
:100AB0003A81B06800F00C00082840F0A580012DB4
:100AC00040F00E81012002B0BDE8F081606900288D
:100AD00000F082800020C4F247200121C0F8801E6F
:100AE000FFF7FAFD054600BF706F8007DAD4FFF705
:100AF000F3FD401B0228F7D9032002B0BDE8F081C6
:100B0000306C5FEAC0080AD400200190306C40F0DD
:100B100080503064306C00F080500190019847F2B2
:100B20000007C4F200073868C00547D4386840F4AD
:100B300080703860FFF7D0FD054600BF3868C005FB
:100B40003CD4FFF7C9FD401B0228F7D9032002B0AF
:100B5000BDE8F081B06800F00C00082803D170688F
:100B600040023FF576AF61683068B1F5803F07D04D
:100B7000B1F5A02F40F09A8040F4802030603068BA
:100B800040F4803030609AE0E068002840F20000D5
:100B9000C4F247205CD001210160FFF79DFD0546AE
:100BA000306880073FF574AFFFF796FD401B0228C1
:100BB000F6D9032002B0BDE8F08100BFA168306F14
:100BC000012905D0052955D140F004003067306F68
:100BD00040F00100306756E00020C4F247200021B9
:100BE000C0F8801EFFF778FD054600BF706F8007D4
:100BF0007FF558AFFFF770FD401B0228F6D90320A0
:100C000002B0BDE8F08100BF0027C4F247270020F2
:100C10003866FFF761FD022D05460DD13068800171
:100C200040F18A80FFF758FD401B02284FF0030077
:100C3000F4D902B0BDE8F0813068800173D5FFF7C8
:100C40004BFD401B02284FF00300F5D9F1E700BF30
:100C500000210160FFF740FD054600BF30688007B6
:100C60007FF51DAFFFF738FD401B02284FF0030052
:100C7000F4D9DEE720F001003067306F002920F062
:100C8000040030677AD0FFF727FD054641F2883728
:100C9000306F800700F18480FFF71EFD401BB842D3
:100CA000F6D9032002B0BDE8F08100BF20F4803007
:100CB00030603068002920F4802030607AD0FFF75F
:100CC0000BFD0546306880033FF5CAAEFFF704FD13
:100CD000401B6428F6D9032002B0BDE8F08100BFB4
:100CE0007068E16900F480028A4221D1216A00F033
:100CF0003F028A421CD147F6C071626A0140B1EBE3
:100D0000821F15D1A16A4FF6FF73C903994300F4FE
:100D10004032A1F580318A420AD1E16A00F0706068
:100D2000B0EB016F04D1002002B0BDE8F08100BF3C
:100D3000012002B0BDE8F08104F11C052FCD08436D
:100D400040EA8210D9034FF6FF729143A1F580313A
:100D500040EA05600843706001203866FFF7BCFC7C
:100D6000044600BF30688001DDD4FFF7B5FC001BEE
:100D700002284FF00300F5D95BE700BFFFF7ACFC9A
:100D8000054641F2883700BF306F800708D5FFF76E
:100D9000A3FC401BB8424FF00300F5D949E700BF60
:100DA000B8F1000F3FF581AE306C20F08050306418
:100DB0007BE600BFFFF790FC054600BF306880036C
:100DC0007FF54EAEFFF788FC401B64284FF0030010
:100DD000F4D92EE7411E0020B0EB116F1CBF01209B
:100DE00070474EF21002CEF2000251604EF62351CF
:100DF000CEF20001F0230B70072190601160704764
:100E0000FEE70000FEE70000FEE70000704700007C
:100E100070470000FFF766BC4EF68850CEF2000027
:100E2000016841F47001016070470000FEE70000B6
:100E300080B540F25C10C2F2000040210122FFF7B1
:100E4000DBFA80BD2DE9F04740F6140440F25C1A4D
:100E50004FF00C08C4F202040FF2AC09C2F2000A0F
:100E6000002500BF19F80500C4F800081AF80500AD
:100E7000216821F001010844206021680AEB050087
:100E8000027A21F0020162F34101037C067E90F8B0
:100E900020702160216821F0040163F38201216048
:100EA000216821F0080166F3C3012160216821F067
:100EB000100167F30411216090F82810226822F0D5
:100EC000200261F34512226090F83010226822F06F
:100ED000400261F38612226090F83800216821F008
:100EE000800160F3C71101202160FFF7F9FA013595
:100EF000082DB7D1B8F10108B2D80020C4F8000815
:100F00002060BDE8F08700BF010204081020408087
:100F10002DE9F04F83B0FFF79FF90646FFF7DCFBA2
:100F2000FFF74CFA40F25414C2F20004002040F2E1
:100F30000C0A2070C2F2000A01208AF80000042086
:100F4000032100F0A3F900BF207830B9207820B940
:100F5000207810B920780128F6D10025032406F066
:100F6000030808F1060008F1010908F1040B08F173
:100F70000506029008F1070007270190FFF758FFC8
:100F80009AF80000012805D10020072CB8BF0120E5
:100F900003E000BFE043C01701359AF80010044495
:100FA000002901BF022D01218AF80010002504202C
:100FB000214600F06BF93846002100F067F9B8F1DE
:100FC000000F11D03846012100F060F9B9F1020F8D
:100FD0000AD03846022100F059F9B9F1030F03D0C5
:100FE0003846032100F052F93846594600F04EF9D0
:100FF000082E11D03846314600F048F902980828EA
:101000000AD00299384600F041F90198082803D027
:101010000199384600F03AF9FFF714FF042F09D17F
:10102000444511DD5C450FDA072C4FF00307A5D1CD
:101030000AE000BF072C07D0002FA7F101079DDCB5
:10104000FFF70AF906468AE70024C4F202042046A4
:1010500002210122FFF73AFBFFF7EAFE0020002100
:1010600000F014F90020072100F010F901200121FF
:1010700000F00CF90120062100F008F902200221FD
:1010800000F004F90220052100F000F903200321FB
:1010900000F0FCF80320042100F0F8F804200421FB
:1010A00000F0F4F80420032100F0F0F805200521F9
:1010B00000F0ECF80520022100F0E8F806200621F7
:1010C00000F0E4F80620012100F0E0F807200721F5
:1010D00000F0DCF80720002100F0D8F8FFF7B2FE9E
:1010E00020460221002203B0BDE8F04FFFF7EEBA20
:1010F00080B5FFF7F1FA40F25411C2F200014A68DC
:10110000821AC92A0AD30A780023002A04BF0122BE
:101110000A7040F20C02C2F200021370486080BDF7
:1011200092B043F6300547F20007C4F20205C4F25C
:101130000007FFF7E5FA06AC20463021FFF764F917
:1011400000260596CDE90366CDE90166009628697B
:1011500040F080502861286900F08050009000988D
:101160000096386840F480403860386800F4804069
:1011700000900098022006900120099010200A900B
:1011800020460C96FFF750FC10B172B6FEE700BF88
:101190000F20CDE9010601A80021CDE903660596DF
:1011A000FFF758FB10B172B6FEE700BF00260A96A3
:1011B000CDE90866CDE9066601962868FF2140F072
:1011C000100028602868002200F0100001900198AB
:1011D000019628684FF0FF0A40F004002860286854
:1011E00000F00400019001980196286840F0010089
:1011F0002860286807F5D03500F0010001900198BB
:101200002846FFF763FA07F5CC384046FF21002255
:10121000FFF75CFA07F5C8342046022100224FF0A0
:101220000209FFF753FA06AF4FF0010B2846394683
:10123000CDF818A0CDE907B60996FFF777F9404633
:101240003946CDE906ABCDE90866FFF76FF94FF4F3
:101250008810CDE9070620463946CDF818B0FFF7CB
:1012600065F920463946CDE9069BCDE90866FFF7CA
:101270005DF9062000210022FFF7B0FA0620FFF7F3
:101280009BFA00BFFFF744FEFCE7000041EA0002C2
:10129000072A88BF704740F25C12C2F2000202EBDC
:1012A000C000002242547047F1EE100A4FF6FF7161
:1012B000C0F2C03120EA010040F04070E1EE100AB7
:1012C0007047000000000000000001020304060750
:1012D00008090000F81200080000002010000000BB
:1012E000EC0100080813000810000020900700001F
:1012F0000C020008000000000100000010000000C7
:081300000024F40001000000CC
:040000050800018965
:00000001FF
